:100000000C942D010C9455010C9455010C94550140
:100010000C9455010C9455010C9455010C94550108
:100020000C9455010C9455010C94320C0C94A10CB9
:100030000C9455010C9455010C9455010C945501E8
:100040000C9455010C9455010C9455010C945501D8
:100050000C9455010C9455010C9455010C94D30E3D
:100060000C9455010C9455010C9455010C945501B8
:100070000C9455010C9455010C9455010C945501A8
:100080000C9455010C9455010C9455010C94550198
:100090000C941D0F0C9455010C9455010C945501B2
:1000A0000C9455010C9455010C945501000000006E
:1000B000000000002A2B28000000000000000000C3
:1000C0000000000000000000000000002C9EB4A012
:1000D000A1A2A434A6A7A5AE362D3738271E1F200F
:1000E000212223242526B333B62EB7B89F848586D4
:1000F0008788898A8B8C8D8E8F9091929394959618
:100100009798999A9B9C9D2F3130A3AD3504050695
:100110000708090A0B0C0D0E0F10111213141516F7
:100120001718191A1B1C1DAFB1B0B5000000000054
:100130002300260029002C002F00000000020009E7
:100140000F0000030401000C00000000000000008C
:10015000000000000000000000080B000202020086
:10016000000904000001020200000524001001053E
:10017000240101010424020605240600010705816B
:100180000310004009040100020A000000070502F4
:100190000240000007058302400000040309041226
:1001A000010002EF020140412336800001010203F9
:1001B0000141726475696E6F204C4C43004172645A
:1001C00075696E6F204C656F6E6172646F00000020
:1001D0000000250028002B002E0031000000000048
:1001E000240027002A002D00300004040404040326
:1001F00004050202020204030202020206060606C7
:1002000006060404020202040404080201104080ED
:1002100040102040804080080204018040201002ED
:10022000011080102040402005010906A10185022F
:10023000050719E029E715002501750195088102D8
:100240009501750881039506750815002573050746
:10025000190029738100C0003C1011241FBECFEF8C
:10026000DAE0DEBFCDBF11E0A0E0B1E0E0EEF5E204
:1002700002C005900D92A439B107D9F723E0A4E993
:10028000B1E001C01D92AA31B207E1F711E0CDE261
:10029000D1E004C02197FE010E94D412CC32D107D4
:1002A000C9F70E94E0100C94EE120C9400008091AB
:1002B0000B0290910C02891B990B0895CF93DF9349
:1002C00090E0FC01E75FFD4F249186519E4FFC01B9
:1002D00084918823C1F090E0880F991FFC01E452BB
:1002E000FE4FC591D491FC01E253FE4FA591B4910C
:1002F0009FB7F8943881822F809583238883EC916F
:10030000E22BEC939FBFDF91CF910895CF93DF93C2
:10031000FC0181819091EB02482F490F5527551F11
:10032000483051059CF5A281B381109709F527EE5D
:1003300032E03383228320812093E9028093EA0212
:100340008091EC02820F80832091ED02A22FB09168
:10035000EE028A2F821B8917E8F481813D91C82F14
:10036000D0E0C45FDE4F38838F5F8183F2CFD90145
:1003700018962D913C91199721153105C1F727EE5B
:1003800032E019963C932E931897D5CF80E0DF91F9
:10039000CF91089581E0FBCFFC0180910A02882370
:1003A00011F13FB7F89482E08093E9002091F200C8
:1003B000822F90E01816190614F481E090E088234B
:1003C00039F0289844E6409309024091F1004083B7
:1003D000222339F02091F200211103C02BE6209353
:1003E000E8003FBF08958FEF9FEF089508950895A7
:1003F00008954091F7015091F8012091F501309155
:10040000F60142175307B4F49091E8009570E1F3B8
:100410009091E80092FD19C08093F1008091F7015E
:100420009091F80101968F739927892B19F48EEF1B
:100430008093E8008091F7019091F80101969093E4
:10044000F8018093F70181E0089580E00895EF922C
:10045000FF920F931F93CF93DF93F82E192FE62E61
:10046000042F81E0860F880F0E94F90183E00E942B
:10047000F901CF2DD12FEC0EFD2EF11CCE15DF058D
:10048000B9F007FF13C0FE0184910E94F901182FF3
:1004900080E00E94F901812321968111EFCFDF9145
:1004A000CF911F910F91FF90EF9008958881EDCF2C
:1004B00081E0F5CFDF92EF92FF920F931F93CF93DE
:1004C000DF93D82E8A01EB017B01E40EF51ECE15D9
:1004D000DF0559F0D7FE12C0FE0184910E94F90198
:1004E00021968111F4CF0FEF1FEFC801DF91CF915B
:1004F0001F910F91FF90EF90DF9008958881EECFCC
:100500002FB7F89487708093E9009091E800892FC5
:10051000807295FF04C09091F20080E4891B2FBF88
:100520000895615030F02091F100FC012083019684
:10053000F8CF289884E68093090208958091ED0110
:1005400081110DC082E08093E90184E08093EA018B
:100550001092EC011092EB0181E08093ED0189EEA5
:1005600091E008950F931F93CF93DF931F92CDB720
:10057000DEB782E0898342E450E069E571E080E81B
:100580000E945A020E949E02DC0112960D911C915B
:100590000115110589F0D801ED91FC910280F381DC
:1005A000E02DBE016F5F7F4FC801099597FD04C024
:1005B000F80100851185ECCF89810F90DF91CF91F3
:1005C0001F910F910895CF93DF931F92CDB7DEB7A0
:1005D0006983DC01ED91FC910280F381E02D41E023
:1005E00050E0BE016F5F7F4F09950F90DF91CF9173
:1005F000089583E08093E9008091F200882319F048
:100600008AE38093E800089583E00E94800290E0EE
:100610000895CF93DF931F92CDB7DEB7FC01848599
:10062000958597FD08C02FEF3FEF358724870F9002
:10063000DF91CF910895CE0101960E94CC010197E0
:1006400019F4898190E0F3CF8FEF9FEFF0CF0F93F4
:100650001F93CF93DF931F92CDB7DEB78C01FC01C0
:100660008485958597FF0BC0CE0101960E94CC0131
:10067000019771F4898190E0F80195878487F801EA
:10068000848595850F90DF91CF911F910F910895EB
:100690008FEF9FEFF1CFFC018485958597FD0BC00F
:1006A0009FB7F89482E08093E9008091F2009FBFA9
:1006B00090E0019608959FB7F89482E08093E90056
:1006C0008091F2009FBF90E0089581508F3008F034
:1006D00047C0E82FF0E0E159FC4F0C94D4128C0392
:1006E00090037E0384038803B003B003B003930335
:1006F00099039D03A103A703B003AB03809180007E
:100700008F77809380000895809180008F7DF9CF4E
:1007100080918000877FF5CF84B58F7784BD089561
:1007200084B58F7DFBCF809190008F778093900070
:100730000895809190008F7DF9CF80919000877F00
:10074000F5CF8091C0008F778093C000089580918D
:10075000C0008F7DF9CF8091C200877F8093C20057
:100760000895CF93DF93282F30E0F901E65CFE4F28
:100770008491F901E75FFD4FD491F901E651FE4FF5
:10078000C491CC23A1F081110E946503EC2FF0E00D
:10079000EE0FFF1FE45DFE4FA591B491EC91ED23A8
:1007A00081E090E009F480E0DF91CF91089580E04E
:1007B00090E0FACF1F93CF93DF93282F30E0F90119
:1007C000E65CFE4F8491F901E75FFD4FD491F9019A
:1007D000E651FE4FC491CC23A9F0162F81110E943F
:1007E0006503EC2FF0E0EE0FFF1FE253FE4FA591E3
:1007F000B4918FB7F894EC91111108C0D095DE2315
:10080000DC938FBFDF91CF911F910895DE2BF8CF3E
:100810003FB7F8948091E5019091E601A091E7013E
:10082000B091E80126B5A89B05C02F3F19F00196AD
:10083000A11DB11D3FBFBA2FA92F982F8827BC013A
:10084000CD01620F711D811D911D42E0660F771F62
:10085000881F991F4A95D1F708958F929F92AF9262
:10086000BF92CF92DF92EF92FF924B015C010E9408
:1008700008046B017C010E9408046C197D098E0933
:100880009F09683E734081059105A8F321E0821A13
:100890009108A108B10888EEC80E83E0D81EE11CBB
:1008A000F11C81149104A104B10429F7FF90EF9089
:1008B000DF90CF90BF90AF909F908F9008957F92E0
:1008C0008F929F92AF92BF92CF92DF92EF92FF9260
:1008D0000F931F93CF93DF93C82E8B017A018091E2
:1008E0000A02811110C08FEF9FEFDF91CF911F910E
:1008F0000F91FF90EF90DF90CF90BF90AF909F90BF
:100900008F907F9008958091FB0180FF05C08091BA
:10091000E00082608093E000CE2DDF2DD12C8AEFA5
:10092000B82E8C2D8770982E8C2D8072882E8C2D51
:100930008074782E9AE3A92E209719F4DD2009F40B
:1009400052C08C2D0E94800281110AC0BA94BB2033
:1009500051F261E070E080E090E00E942D04ECCF65
:100960008C171D0611F00CF08C2F9FB7F894909205
:10097000E9002091E80025FD02C09FBFDDCF282FB0
:1009800030E0C21BD30B882029F08150A0F01092D8
:10099000F100FBCFF801C7FC0AC0815050F0419133
:1009A0004093F100FACF44914093F1003196815089
:1009B000D0F7020F131FDD2021F0A092E800D12C08
:1009C000DCCF8091E80085FD07C0A092E800DD241F
:1009D000D394209791F2F3CF209779F6772069F29C
:1009E000A092E800CACF5D9884E68093FA01C7011F
:1009F0007CCFEF92FF921F93CF93DF931F92CDB7DF
:100A0000DEB77C018091F80281112AC011E01093B9
:100A1000EB021093EC0281EF92E09093EE02809350
:100A2000ED021092F0021092EF0280E791E09093B5
:100A3000E8028093E7021092F3021092F202109201
:100A4000F5021092F4021093F6021093F70281EC73
:100A50008093F1020E949E020E9486011093F80288
:100A600082E0898341E050E0BE016F5F7F4F80915B
:100A7000EA020E945F0497FD08C08091EA0248E004
:100A800050E0B70180640E945F040F90DF91CF9126
:100A90001F91FF90EF900895CF93DF93EC01809129
:100AA0000B01882331F083E00E945F0418161906B9
:100AB00034F081E090E09B838A8380E090E0DF91D6
:100AC000CF9108952FB7F8946091E1017091E20100
:100AD0008091E3019091E4012FBF08952091BD0121
:100AE000260F3327331F21323105ECF420916102A8
:100AF000FC0190E080E0243069F082E00895A0914C
:100B0000BD012191AC0143565E4FA40FB52FB11D1D
:100B10002C930196861798F38091BD01680F60931E
:100B2000BD0180E0089581E008951092610281E0A6
:100B30008093600210923B0261E082E00E94DA033F
:100B400061E083E00E94DA03E9EBF0E080818E7FD0
:100B5000808380818D7F808388E48093B80085E4E2
:100B60008093BC000895CF93DF9391E090939C0114
:100B70008823B9F0C091B800D091BA008091BC0030
:100B80008A7B8093BC0060E082E00E94DA0360E030
:100B900083E00E94DA030E949505D093BA00C093C7
:100BA000B800DF91CF910895CF92DF92EF92FF923C
:100BB0000F931F93CF93DF93D0918A0281E0D132BC
:100BC00008F09CC0C09189020E9408046B017C015E
:100BD0008091610281116CC082E08093610281E0AA
:100BE000809360028FEF80935F0210925E02D09339
:100BF0005D02A9E6B2E0EDE3F2E080E0D8138DC03B
:100C000010923C0280913C02CC0FC82BC0933C0256
:100C100080913B02813009F084C010923B020E9417
:100C200008046B017C0180913C028093BB008091A1
:100C3000630290916402A0916502B0916602892BD3
:100C40008A2B8B2BA1F00E94080400916302109163
:100C5000640220916502309166026C197D098E094B
:100C60009F09061717072807390708F442C0809123
:100C7000BC0083FDD8CF85EC8093BC000E940804A3
:100C80006B017C0180916102823009F44CC080913B
:100C90005F028F3F09F469C080915F02803209F4DE
:100CA00066C080915F02803309F463C084E026C08F
:100CB0008091630290916402A0916502B0916602F6
:100CC000892B8A2B8B2B09F483CF0E940804009177
:100CD00063021091640220916502309166026C19E2
:100CE0007D098E099F09061717072807390708F09D
:100CF0006FCF809162020E94B30585E01092680276
:100D000010928A0210926702DF91CF911F910F918A
:100D1000FF90EF90DF90CF9008959D9191938F5F1A
:100D20006DCF85EEA9CF8091630290916402A0916E
:100D30006502B0916602892B8A2B8B2B09F4A2CF16
:100D40000E940804009163021091640220916502E0
:100D5000309166026C197D098E099F0906171707E5
:100D60002807390708F08ECFC4CF80E0C7CF82E0D4
:100D7000C5CF83E0C3CFE0910C0280910B02E8174E
:100D800030F4F0E0E35FFD4F808190E008958FEF55
:100D90009FEF089590910C0280910B022FEF3FEF8F
:100DA000981748F4E92FF0E0E35FFD4F208130E031
:100DB0009F5F90930C02C9010895CF92DF92EF924A
:100DC000FF920F931F93CF93DF937C01CB018A0196
:100DD00020916702222389F0EB016B01C40ED51E1E
:100DE000CC15DD0569F06991D701ED91FC91019079
:100DF000F081E02DC7010995F3CF642F0E946E05A5
:100E0000C801DF91CF911F910F91FF90EF90DF907C
:100E1000CF900895CF93DF931F92CDB7DEB769834C
:100E2000209167022223F9F020918A02203258F0A3
:100E300021E030E0FC013383228390E080E00F90DA
:100E4000DF91CF91089580916802E82FF0E0E75993
:100E5000FD4F998190838F5F8093680280938A020F
:100E600081E090E0ECCF61E0CE0101960E946E053A
:100E7000F7CF682F8BED92E00C940A07CF93C82F21
:100E800081E08093670282E5809389021092680274
:100E900010928A028BED92E00E940A076C2F8BED74
:100EA00092E00E940A070E94D4056AE070E080E0A8
:100EB00090E0CF910C942D04DC01FB0112962C9153
:100EC0001297848195812817190641F491818081B8
:100ED000813A31F49D7F81E0913009F080E00895FE
:100EE0008132E1F79B3029F482811F968C9381E057
:100EF00008959A3099F7828150968C93F8CFDC014F
:100F0000FB0188E4808389E4818384E482831D96E5
:100F10009C911D979F709F5B93831D968D919C91D3
:100F200024E0969587952A95E1F78F708F5B8483EF
:100F300085E00895EF92FF920F931F93CF93DF9375
:100F4000FB012081213871F52381223259F5DC0122
:100F500012964C91248135814217130619F5EC0144
:100F60000B851C85F12CE12C0115110589F0F80188
:100F7000448155816281738180E80E945A028F3FCB
:100F8000980749F0E80EF91ED8010D911C91ECCF9D
:100F900081E08F87C701DF91CF911F910F91FF9063
:100FA000EF90089590E080E0F6CFCF93DF93CDB738
:100FB000DEB769970FB6F894DEBF0FBECDBFFC0158
:100FC000DB018C918F5F8C939E012D5F3F4F8DE0F5
:100FD000D9011D928A95E9F729E0298384E08A8363
:100FE00091E09D8383E08E832A8721E22B879C8773
:100FF0009D879F8722E2288B27E02B8B25E02C8B77
:101000008E8B20E430E0388F2F8B998F82818B83F9
:1010100095858685998B8A8B838180688D8B49E144
:1010200050E0BE016F5F7F4F80E00E945A026996D8
:101030000FB6F894DEBF0FBECDBFDF91CF910895FC
:10104000CF92DF92EF92FF920F931F93CF93DF9394
:101050006C01EB017B01E40EF51E10E000E0CE1503
:10106000DF0581F069916D30D1F3D601ED91FC91EE
:101070000190F081E02DC6010995892B19F00F5FD1
:101080001F4FEDCFC801DF91CF911F910F91FF90BE
:10109000EF90DF90CF900895DC01683888F16858B0
:1010A00016968C911697861721F117968C911797A3
:1010B0008617F9F018968C9118978617D1F0199623
:1010C0008C9119978617A9F01A968C911A97861702
:1010D00081F01B968C911B97861759F0FD0136966F
:1010E00090E080E02191211139C08A0F9B1FFC0103
:1010F0006683CD0104960E94F90481E090E0089592
:10110000E62FF0E067FF11C0E058F10921E030E080
:1011100001C0220FEA95EAF714968C911497822B5E
:1011200014968C93149760E0BBCFE455FF4F649105
:10113000611109C081E090E013969C938E93129701
:1011400090E080E0089567FFABCF14968C911497E0
:10115000826014968C9314976F77A2CF0196863095
:10116000910509F0BFCFE6CFEF92FF920F931F9347
:10117000CF938C01C62F0E944C087C01C838C8F060
:10118000C858F80186E0CC2321F09681C91301C02C
:101190001682815031968111F6CFC80104960E94C3
:1011A000F904C7019927CF911F910F91FF90EF90FC
:1011B0000895EC2FF0E0C7FF0FC0E058F10981E07F
:1011C00090E001C0880FEA95EAF78095F8019481D4
:1011D00089238483C0E0D5CFE455FF4FC491CC234D
:1011E00001F3C7FFCECFF80184818D7F8483CF7751
:1011F000C8CF089590E080E00895CF93C82F8F3D29
:1012000029F062E88EE093E00E944C08EC2FCC0FAE
:10121000FF0BEA5CFE4F60818EE093E00E944C0879
:1012200064E670E080E090E00E942D0410921403C8
:1012300010921503109216031092170310921803C0
:10124000109219031092120382E193E0CF910C9453
:10125000F90481E08093670288E380938902109209
:10126000680210928A0281E090E00E943907E091C2
:101270000502F0910602EE0FFF1FE95DFE4F80812F
:1012800091810E94390790E080E00E943907E09147
:101290000102F0910202EE0FFF1FED5EFE4F808112
:1012A00091810E943907E0910302F0910402EE0F50
:1012B000FF1FED5EFE4F808191810E9439070C94E3
:1012C000D405809105029091060297FD05C08230F9
:1012D000910524F0029799F00C942909880F991F21
:1012E000880F991F2091070230910802820F931FE7
:1012F00090930202809301020E94FD08EDCF80913D
:101300000702909108028430910511F48CE0F4CF2B
:101310009C01285F3F4F3093020220930102885FB7
:10132000EBCF2F923F924F925F926F927F928F926C
:101330009F92AF92BF92CF92DF92EF92FF920F9364
:101340001F93CF93DF93CDB7DEB72C970FB6F894EA
:10135000DEBF0FBECDBF0E9408042B013C0180916F
:101360006102811166C081E0809361028093600216
:101370009FEF90935F0210925E0295E090935D0262
:1013800080933C0280913C02846A80933C0280916D
:101390003B02813009F087C010923B020E94080492
:1013A0002B013C0180913C028093BB008091630241
:1013B00090916402A0916502B0916602892B8A2BFC
:1013C0008B2BA1F00E9408042091630230916402EB
:1013D0004091650250916602641975098609970962
:1013E000261737074807590708F444C08091BC0006
:1013F00083FDD8CF85EC8093BC000E9408042B01AC
:101400003C0180916102813009F44FC080915E02FD
:10141000A6E07A2E863010F470905E02ADE3B2E062
:10142000EDE0F2E080E0871551F19D9191938F5F9F
:10143000FACF8091630290916402A0916502B0910D
:101440006602892B8A2B8B2B09F489CF0E94080412
:1014500020916302309164024091650250916602CE
:101460006419750986099709261737074807590728
:1014700008F075CF809162020E94B305712C109222
:101480000C0270920B02CE0101962C0180910C028D
:10149000781669F18BED92E00E94CA06F201819301
:1014A00091932F01F3CF85EEA6CF809163029091A7
:1014B0006402A0916502B0916602892B8A2B8B2B66
:1014C00009F49FCF0E9408042091630230916402C6
:1014D0004091650250916602641975098609970961
:1014E000261737074807590708F08BCFC3CF8981E4
:1014F0009A8190932E0280932D028B819C819093F0
:10150000300280932F028B859C852D813E81220F96
:10151000331F82FBAA24A0F8B12CA20EB31EAA0C82
:10152000BB1C83FBCC24C0F8D12CCA0CDB1CD09292
:101530003202C09231022F813885220F331F84FB83
:10154000EE24E0F8F12CE20EF31EEE0CFF1C85FBFE
:10155000002700F910E00E0D1F1D109334020093B8
:10156000330229853A85220F331F86FB222420F877
:10157000312C220E331E220C331C87FB882480F86A
:10158000912C280C391C30923602209235029C0195
:1015900020953095217033273093380220933702FD
:1015A00021E030E081FF02C030E020E030933A02D9
:1015B0002093390260E080E02C960FB6F894DEBFED
:1015C0000FBECDBFDF91CF911F910F91FF90EF9094
:1015D000DF90CF90BF90AF909F908F907F906F9053
:1015E0005F904F903F902F900C943E07CF93DF93E6
:1015F000FC0101900020E9F73197AF01481B590B1E
:10160000BC018BE892E00E944C05EC0142E050E006
:1016100064E871E08BE892E00E944C058C0F9D1FFE
:10162000DF91CF9108950F931F930E9491098091AC
:101630002D0290912E028038910594F10E9462054E
:10164000009198011091990120919A0130919B018C
:10165000601771078207930718F186E40E94FD085E
:101660000E946205AB01BC0120912D0230912E0237
:1016700083E191E0821B930B092E000CAA0BBB0B9C
:10168000840F951FA61FB71F80939801909399010F
:10169000A0939A01B0939B0187E891E00E94F60A1B
:1016A00080912D0290912E028B3791057CF50E943E
:1016B0006205009198011091990120919A01309151
:1016C0009B01601771078207930700F187E40E946E
:1016D000FD080E946205AB01BC0180912D02909132
:1016E0002E024996092E000CAA0BBB0B840F951FE6
:1016F000A61FB71F8093980190939901A0939A0118
:10170000B0939B018AE891E00E94F60A80912F0233
:10171000909130028038910594F10E946205009109
:1017200094011091950120919601309197016017D5
:1017300071078207930718F188E40E94FD080E9450
:101740006205AB01BC0120912F023091300283E190
:1017500091E0821B930B092E000CAA0BBB0B840F8C
:10176000951FA61FB71F8093940190939501A09396
:101770009601B09397018DE891E00E94F60A80915E
:101780002F02909130028B3791058CF50E946205F3
:10179000009194011091950120919601309197014B
:1017A000601771078207930710F18AE40E94FD0811
:1017B0000E946205AB01BC0180912F029091300222
:1017C0004996092E000CAA0BBB0B840F951FA61F70
:1017D000B71F8093940190939501A0939601B093C5
:1017E000970180E991E01F910F910C94F60A1F91E7
:1017F0000F91089585ED8093BC00809163029091D4
:101800006402A0916502B09166020796A11DB11D08
:1018100023E0B695A795979587952A95D1F72091BE
:10182000BC0024FD03C01092610208954091630240
:10183000509164026091650270916602452B462BBF
:10184000472B69F30097A105B10541F025E32A95DF
:10185000F1F700000197A109B109E1CF809162027F
:101860000C94B3051F920F920FB60F9211248F9311
:101870009F938091E1009091E100937F9093E1002C
:1018800083FF0FC01092E90091E09093EB0010925B
:10189000EC0092E39093ED0010920A0298E090938E
:1018A000F00082FF22C093E09093E9009091F20053
:1018B000992319F09AE39093E8009091FA01992303
:1018C00041F09091FA0191509093FA01911101C069
:1018D0005D9A90910902992341F0909109029150EB
:1018E00090930902911101C0289A84FF18C0809139
:1018F000E2008E7E81608093E2008091E1008F7E25
:101900008093E1008091FB018E7E80618093FB01DA
:101910009F918F910F900FBE0F901F90189580FF91
:10192000F7CF8091E2008E7E80618093E20080910B
:10193000E1008E7E8093E1008091FB018E7E8160CC
:10194000E5CF1F920F920FB60F921124CF92DF9224
:10195000EF92FF920F931F932F933F934F935F93B9
:101960006F937F938F939F93AF93BF93EF93FF9367
:10197000CF93DF93CDB7DEB76C97DEBFCDBF1092AC
:10198000E9008091E80083FF25C068E0CE0145961C
:101990000E94910282EF8093E8008D8987FF39C011
:1019A0009091E80090FFFCCF982F907609F034C119
:1019B0009E894F89588D2F89F88C911131C08038BC
:1019C00061F58091FC018093F1001092F1008EEF9F
:1019D0008093E8006C960FB6F894DEBF0FBECDBFC3
:1019E000DF91CF91FF91EF91BF91AF919F918F9137
:1019F0007F916F915F914F913F912F911F910F9127
:101A0000FF90EF90DF90CF900F900FBE0F901F9040
:101A100018959EEF9093E800C7CF1092F100D5CFB4
:101A2000913059F48111D3CF4130510581F6809125
:101A3000FC018D7F8093FC01CACF933049F4811162
:101A4000C6CF4130510519F68091FC018260F2CF7A
:101A5000953041F48091E80080FFFCCF206820930E
:101A6000E300B5CF963009F0A9C00B8D1C8D22E0A4
:101A70001092E9001092F8011092F701F2122EC0B4
:101A80001092F6011092F5010E94B2021F8299E0B5
:101A90009983FA8291E09E8390EA98879AEF9987DA
:101AA0002091F7013091F801275F3F4F3C832B8352
:101AB0008D831092E9001092F8011092F7011093B3
:101AC000F6010093F50149E050E0BE016F5F7F4FE2
:101AD00080E00E945A020E94B20279CF1093F60170
:101AE0000093F5010E949E02DC0112960D911C915B
:101AF0000115110509F451C1D801ED91FC91048043
:101B0000F581E02DBE016B5E7F4FC80109950097FE
:101B100009F03EC1F80100851185EACFF3E0FF121C
:101B20000EC08F89882309F440C0823061F440E8F8
:101B300060E18DEB91E00E942702811148CF81E2A4
:101B40008093EB0047CF813029F440E86BE081EBD4
:101B500091E0F1CF833099F70E949E02DC0112964A
:101B6000ED90FC908E010F5F1F4F6801E114F104AE
:101B700079F0D701ED91FC910680F781E02DB80155
:101B8000C7010995080F111DF701E084F184EECF1C
:101B9000D8011C92F60101900020E9F73197BF01AE
:101BA0006C197D0940E0C601C6CF6BE971E0FB010D
:101BB000449150E080E80E945A0209CF973009F41E
:101BC000BECF983021F481E08093F10000CF9930AE
:101BD00009F0FDCE837009F0B2CFEDE0F1E081E0D5
:101BE00031E096E32191222371F08093E900309354
:101BF000EB00DF0111972C912093EC009093ED0006
:101C00008F5F873079F78EE78093EA001092EA00C1
:101C10008F8980930A02DBCE8B8D9C8D1092E90018
:101C20001092F8011092F7019093F6018093F5015C
:101C3000898D811192C08E899D89913A49F48132B2
:101C400009F07DCF47E050E064E071E080E0B3CF81
:101C5000913209F074CF833269F48F89988DB0E0A6
:101C6000A0E08093000190930101A0930201B09342
:101C70000301ADCE803269F48091E80082FFFCCF91
:101C800067E084E091E00E9491028BEF8093E8008E
:101C90009ECE823209F09BCE8F8980930B01EEEFAE
:101CA000FFE7859194918B3F9C4D51F1E0E0F8E086
:101CB0008091040190910501A0910601B091070166
:101CC000803B9440A105B105F1F480910B0180FDAA
:101CD0001AC0EE3F8AE0F80789F587E797E7918316
:101CE0008083809160008093F90188E19BE00FB6CA
:101CF000F894A895809360000FBE9093600067CE23
:101D0000EEEFFAE0D5CF808191818737974709F0D0
:101D10005ECEA8958091600088618093600080917C
:101D2000F90180936000EE3F2AE0F20789F080918C
:101D3000FE0A9091FF0A9183808349CE8081918130
:101D40008737980751F29093FF0A8093FE0AC5CF18
:101D50001092FF0A1092FE0A3ACE0E949E02DC0107
:101D600012960D911C910115110509F4E8CED801C8
:101D7000ED91FC910190F081E02DBE016B5E7F4FF3
:101D8000C8010995811123CEF80100851185EBCF9B
:101D9000181619060CF41BCED2CEF1E0FF12BECEFF
:101DA0006FE971E004CF1F920F920FB60F921124CA
:101DB0002F933F938F939F93AF93BF938091E101B4
:101DC0009091E201A091E301B091E4013091E00132
:101DD00023E0230F2D3758F50196A11DB11D209347
:101DE000E0018093E1019093E201A093E301B093BD
:101DF000E4018091E5019091E601A091E701B091A5
:101E0000E8010196A11DB11D8093E5019093E601C3
:101E1000A093E701B093E801BF91AF919F918F919B
:101E20003F912F910F900FBE0F901F90189526E8AD
:101E3000230F0296A11DB11DD2CF1F920F920FB694
:101E40000F9211242F933F934F935F936F937F9340
:101E50008F939F93AF93BF93EF93FF938091B900BC
:101E6000887F803609F44AC0F0F5883209F4A7C0AB
:101E700018F5803109F49BC0B8F4882309F4F9C03F
:101E8000883009F494C0FF91EF91BF91AF919F9179
:101E90008F917F916F915F914F913F912F910F9013
:101EA0000FBE0F901F901895883109F488C08032BA
:101EB00051F780935F0214C0803409F49DC040F450
:101EC0008033B9F38833F9F680935F0285ECB0C0B4
:101ED000803509F485C0883509F496C0883499F6B0
:101EE0000E94FA0BD0CF883909F48CC038F58837B6
:101EF00029F050F4883611F0803729F683E080937A
:101F000061021092DF0157C0883809F47BC0803924
:101F100019F0803809F0B7CF8091DF01803208F0E6
:101F200071C0E091DF0181E08E0F8093DF0180912D
:101F3000BB00F0E0E154FE4F80833DC0803B39F0B0
:101F4000E0F4803A09F479C0883A09F09CCF84E043
:101F5000809361021092BE011092BD01E091FF01D9
:101F6000F091000209958091BD0181110FC081E0BF
:101F70008093BD0110929D0109C0803C09F4A6CF59
:101F8000883C09F4A3CF883B09F07DCFE091BE01E6
:101F900081E08E0F8093BE01F0E0E356FE4F80811A
:101FA0008093BB009091BE018091BD0129C08091BA
:101FB0003C028093BB0085EC8093BC0064CF909181
:101FC0005E0280915D02981758F5E0915E0281E013
:101FD0008E0F80935E02F0E0E35CFD4F8081E9CFDD
:101FE000E0915E0281E08E0F80935E028091BB00E3
:101FF000F0E0E35CFD4F808390915E0280915D0292
:102000009817C8F285E8D8CFE0915E0281E08E0F84
:1020100080935E028091BB00F0E0E35CFD4F808323
:102020008091600281115CCF81E080933B0284EA61
:102030008093BC001092610226CF85EC8093BC0097
:10204000109261028091DF01803230F4E091DF0173
:10205000F0E0E154FE4F10826091DF0170E0E0910A
:10206000FD01F091FE018FEB91E009951092DF01E7
:102070000ACF10925F0234CFCF9310928E0210924B
:102080008D0288EE93E0A0E0B0E080938F02909301
:102090009002A0939102B09392022CE431E030932D
:1020A0008C0220938B022FEF3FEF30939802209306
:1020B00097021092DE021092DD028093DF0290936D
:1020C000E002A093E102B093E2028EE591E09093EA
:1020D000DC028093DB0210921103109210038CE754
:1020E00091E090930F0380930E038091060381117A
:1020F00013C0109201031092000388E292E09093C3
:102100000303809302038FE290E090930503809392
:10211000040381E0809306038091F80281112AC0B4
:10212000C1E0C093EB02C093EC0281EF92E0909388
:10213000EE028093ED021092F0021092EF0280E71F
:1021400091E09093E8028093E7021092F3021092DC
:10215000F2021092F5021092F402C093F602C093BC
:10216000F70281EC8093F1020E949E020E94860198
:10217000C093F802E091F202F091F3023097B9F4C3
:1021800080E093E09093F3028093F2028091F40256
:102190009091F5022091040330910503820F931F63
:1021A0009093F5028093F402CF910895FC01808111
:1021B00091810097D9F780E093E091838083E6CF07
:1021C000789484B5826084BD84B5816084BD85B512
:1021D000826085BD85B5816085BD80916E0081601E
:1021E00080936E00109281008091810082608093C4
:1021F00081008091810081608093810080918000C6
:102200008160809380008091910082608093910032
:102210008091910081608093910080919000816015
:10222000809390008091C10084608093C100809170
:10223000C10082608093C1008091C1008160809361
:10224000C1008091C30081608093C3008091C00071
:1022500082608093C0008091C20081608093C20040
:1022600080917A00846080937A0080917A00826005
:1022700080937A0080917A00816080937A008091C7
:102280007A00806880937A0010920A021092FC0112
:102290001092FB018091D70081608093D70080EA83
:1022A0008093D80089B5806189BD89B5826089BD78
:1022B00009B400FEFDCF61E070E080E090E00E9494
:1022C0002D048091D8008F7C80618093D80080910C
:1022D000E000807F8093E0008091E1008E7E80931B
:1022E000E1008DE08093E200559A209A10920C0252
:1022F00010920B021092680210928A020E949505B9
:1023000086EF91E0909300028093FF0187EF91E0C8
:102310009093FE018093FD0164EF71E080E090E016
:102320000E942D04C1E0C093670288E38093890274
:1023300090E080E00E94390787E490E00E9439072E
:102340000E94D4058DE00E945E0188E00E945E013B
:102350008CE00E945E0189E00E945E018BE00E9499
:102360005E018AE00E945E01C093670210926802DB
:1023700010928A0281E090E00E94390790E080E0AC
:102380000E94390790E080E00E94390790E080E0E9
:102390000E94390790E080E00E9439070E94D4052E
:1023A0001092680210928A020E94950560EF85E5FE
:1023B0000E943E076BEF80E00E943E070E94910959
:1023C0008FEF9FEF90939802809397020E942909C4
:1023D000C3E0D0E050E0852E50E0952E03E010E001
:1023E00064E0E62EF12C72E0C72ED12CAA24A3942F
:1023F000B12C0E94130B8DE00E94B103892BB9F41C
:10240000B0920802A09207020E94610964E670E09F
:1024100080E090E00E942D048DE00E94B103892BA2
:10242000D9F38114910429F30E940000E2CF88E0DF
:102430000E94B103892B91F4D0920802C092070246
:102440000E94610964E670E080E090E00E942D0443
:1024500088E00E94B103892BD9F3E3CF8CE00E947E
:10246000B103892B91F410930802009307020E9494
:10247000610964E670E080E090E00E942D048CE049
:102480000E94B103892BD9F3CCCF89E00E94B1031C
:10249000892B91F4F0920802E09207020E946109F0
:1024A00064E670E080E090E00E942D0489E00E94E4
:1024B000B103892BD9F3B5CF8BE00E94B103892BEF
:1024C00041F580910502909106020196BE010E949D
:1024D000C01290930602809305028230910559F450
:1024E00020910702309108022430310521F49093A5
:1024F0000802809307020E94610964E670E080E0B0
:1025000090E00E942D048BE00E94B103892BD9F347
:1025100088CF8AE00E94B103892B09F082CF8DE039
:102520000E94FD0880910302909104022091010213
:10253000309102023093040220930302909302022E
:10254000809301022091050230910602220F331F71
:10255000220F331F821B930B909308028093070274
:102560000E9429090E94130B64E670E080E090E06D
:102570000E942D048AE00E94B103892BD9F351CF28
:1025800097FB072E16F4009407D077FD09D00E9420
:10259000DA1207FC05D03EF4909581959F4F08957F
:1025A000709561957F4F0895EE0FFF1F0590F49190
:1025B000E02D0994AA1BBB1B51E107C0AA1FBB1F3A
:1025C000A617B70710F0A61BB70B881F991F5A95BF
:1025D000A9F780959095BC01CD010895F894FFCF9F
:1025E000FFFFFFFF00E100000000000000C180814C
:1025F0000000003F0006005B004F0066006D007D9C
:102600000007007F006F0077007C0039005E0079D2
:102610000071000000540051574552545955494F1C
:102620005041DF444647484A00000000E3024C05A1
:102630000403F9024B0309032703000000000A0703
:10264000DD06FA08F8015701CA06BB0600000000C3
:102650005C07D5079A077F0700000000B408200830
:10266000FA08F9080D0A0044580053580053550061
:042670004749550081
:00000001FF
